S0150000626174636831365751546573742E737265635E
S11300000C944F010C946C010C946C010C946C01D5
S11300100C946C010C946C010C946C010C946C01A8
S11300200C946C010C946C010C946C010C946C0198
S11300300C946C010C946C010C946C010C946C0188
S11300400C946C010C946C010C946C010C946C0178
S11300500C946C018E0795079507950795079507EE
S113006095079507950795079507950795079507AC
S1130070950795079507950795079507950795079C
S113008095079507950795079507950795076807B9
S1130090E0060307950778079507950795079507E1
S11300A0950795079507950795079507950795076C
S11300B0830795072E07950795074A079507950720
S11300C09507950795079507950795079507580789
S11300D0E006EB06950778079507950795079507BA
S11300E0950795079507950795079507950795072C
S11300F0830795072007950795073C078E07950703
S1130100950795079507950795079507950795070B
S113011095079507950795079507950795079507FB
S113012095079507950795079507950795079507EB
S11301309507950795079F07E00602079507780737
S113014095079507950795079507950795079507CB
S11301509507950795079507830795072D07950735
S113016095074907950795079507950795079507F7
S11301709507950795075707E006EA069507780758
S1130180950795079507950795079507950795078B
S11301909507950795079507830795071F07950703
S11301A095073B0700407A10F35A00A0724E1809D5
S11301B00010A5D4E80000E87648170000E40B54CA
S11301C0020000CA9A3B000000E1F5050000809699
S11301D09800000040420F000000A08601000000CB
S11301E0102700000000E803000000006400000085
S11301F000000A00000000000100000000002C764E
S1130200D888DC674F0823DFC1DFAE59E1B1B79668
S1130210E5E3E453C63AE651997696E8E6C28426C5
S1130220EB898C9B62ED407C6FFCEFBC9C9F40F2A1
S1130230BAA56FA5F490055A2AF75C936B6CF9671D
S11302406DC11BFCE0E40D47FEF520E6B500D0EDE2
S1130250902E0300943577050080841E080000204A
S11302604E0A000000C80C333333330F986E1283E8
S11302701141EF8D2114893BE65516CFFEE6DB18BC
S1130280D1844B381BF77C1D901DA4BBE424203281
S113029084725E228100C9F124ECA1E53D2711247A
S11302A01FBECFE5D8E0DEBFCDBF12E0A0E6B0E0D0
S11302B0E0E7F4E202C005900D92A239B107D9F744
S11302C023E0A2E9B2E001C01D92A939B207E1F727
S11302D00E948F090C9436120C940000009719F0B8
S11302E000000197E9F70895009741F0E9EFF0E085
S11302F03197F1F700C000000197C1F70895982FD6
S11303009770869586958695813021F130F08230FC
S1130310F1F1833009F458C00895662369F04AB3B3
S113032021E030E0B90102C0660F771F9A95E2F729
S1130330CB01842B8ABB08954AB321E030E0B90194
S113034002C0660F771F9A95E2F7CB01809584234C
S11303508ABB0895662369F047B321E030E0B90110
S113036002C0660F771F9A95E2F7CB01842B87BBF7
S1130370089547B321E030E0B90102C0660F771F4A
S11303809A95E2F7CB018095842387BB0895662371
S113039069F044B321E030E0B90102C0660F771F71
S11303A09A95E2F7CB01842B84BB089544B321E0F2
S11303B030E0B90102C0660F771F9A95E2F7CB01CE
S11303C08095842384BB0895662369F041B321E0BA
S11303D030E0B90102C0660F771F9A95E2F7CB01AE
S11303E0842B81BB089541B321E030E0B90102C000
S11303F0660F771F9A95E2F7CB018095842381BB22
S11304000895982F9770869586958695813021F169
S113041030F08230F1F1833009F458C00895662336
S113042069F04BB321E030E0B90102C0660F771FD9
S11304309A95E2F7CB01842B8BBB08954BB321E053
S113044030E0B90102C0660F771F9A95E2F7CB013D
S1130450809584238BBB0895662369F048B321E01B
S113046030E0B90102C0660F771F9A95E2F7CB011D
S1130470842B88BB089548B321E030E0B90102C061
S1130480660F771F9A95E2F7CB018095842388BB8A
S11304900895662369F045B321E030E0B90102C054
S11304A0660F771F9A95E2F7CB01842B85BB0895DD
S11304B045B321E030E0B90102C0660F771F9A9579
S11304C0E2F7CB018095842385BB0895662369F008
S11304D042B321E030E0B90102C0660F771F9A955C
S11304E0E2F7CB01842B82BB089542B321E030E0D4
S11304F0B90102C0660F771F9A95E2F7CB01809588
S1130500842382BB0895282F277086958695869527
S1130510813079F028F08230A9F08330E1F024C0F2
S113052089B390E002C0959587952A95E2F781708A
S1130530089586B390E002C0959587952A95E2F7D1
S11305408170089583B390E002C0959587952A95AC
S1130550E2F78170089580B390E002C09595879585
S11305602A95E2F78170089580E00895AF92CF92C2
S1130570EF920F931F93CF93DF93E6E9F2E080832A
S1130580618342832383E2E9F2E00083E182C28251
S1130590A382C6E9D2E00AE912E061E089910E94EF
S11305A07F010C171D07C9F7C2E9D2E006E912E082
S11305B060E089910E947F01C017D107C9F7DF91DC
S11305C0CF911F910F91EF90CF90AF9008953F92EC
S11305D04F925F926F927F928F929F92AF92BF924F
S11305E0CF92DF92EF92FF920F931F93CF93DF93FB
S11305F00F2EF6E96F2EF2E07F2EF02D0F2EFAE982
S1130600AF2EF2E0BF2EF02DE30160E089910E944D
S11306100102AC16BD06C9F706E912E00F2EF2E995
S1130620EF2EF2E0FF2EF02D68015E2C4F2CE60138
S11306300F2EF2E98F2EF2E09F2EF02D3324339407
S1130640F40181914F010E94830238220815190593
S1130650B9F7332051F38AE090E00E946E0147011C
S113066033243394F40181914F010E948302382290
S1130670C814D904B9F73320C1F206E912E060E0E6
S1130680F80181918F010E940102A016B106B9F709
S1130690052D142DFF24F394F80181918F010E94FC
S11306A08302F822C017D107B9F7F110F1CF8AE01D
S11306B090E00E946E01052D142DFF24F394F8019F
S11306C081918F010E948302F822C017D107B9F7E4
S11306D0F110DECFC6E9D2E061E089910E94010207
S11306E0AC16BD06C9F7D0E0730160E0F301808168
S11306F00E940102052D142DC0E0F80181918F01A3
S11307000E948302882381F0CF5FC430B1F7FFEFEA
S11307106F1A7F0A61E0F70180810E940102DF5FA6
S1130720D43011F788E70FC0D43060F4ED2FF0E037
S1130730EE0FFF1FEE0FFF1FE05AFF4FEC0FF11DEE
S1130740808101C088E7DF91CF911F910F91FF90C5
S1130750EF90DF90CF90BF90AF909F908F907F905D
S11307606F905F904F903F9008950F931F93CF9396
S1130770C82F84FB662760F90AE912E0F801828534
S11307800E940102C5FB662760F9F80183850E9477
S11307900102C6FB662760F9F80184850E94010204
S11307A06C2F661F6627661FF80185850E9401026B
S11307B0CF911F910F910895CF93DF93CAE9D2E0AF
S11307C060E08B810E94010260E08C810E94010242
S11307D061E08D810E9401028AE090E00E946E0136
S11307E060E08D810E940102DF91CF9108950F9303
S11307F01F93CF93C82F682F61700AE912E0F801A4
S113080086810E940102C1FB662760F9F801878195
S11308100E940102C2FB662760F9F80180850E94EC
S11308200102C3FB662760F9F80181850E94010279
S1130830CF911F910F910895CF93DF93CAE9D2E02E
S113084061E08B810E94010260E08C810E940102C0
S113085061E08D810E9401028AE090E00E946E01B5
S113086060E08D810E940102DF91CF9108951F9372
S1130870CF93DF9380919E028F3FE9F1CAE9D2E0E2
S113088060E08D850E947F0160E08B810E940102FF
S113089061E08C810E94010260E08D810E9401026E
S11308A08AE090E00E946E0161E08D810E94010265
S11308B08AE090E00E946E018D850E948302182FC9
S11308C08A81843081F460E08D810E9401028AE093
S11308D090E00E946E0161E08D810E9401028AE035
S11308E090E00E946E011111D7CF61E08091A702C0
S11308F00E947F0104C081E090E00E947401DF91B6
S1130900CF911F9108958F929F92AF92BF92CF92F1
S1130910DF92EF92FF920F931F93CF93DF93CDB7A4
S1130920DEB7982EB62ED42EFF841889EAE9F2E0B9
S113093083836483458326830783E086C186A286F6
S11309408386F48615872F3F39F00F3F29F08FEF08
S1130950E81611F0C81204C084E080939C0213C00E
S113096088E080939C0261E0822F0E947F0161E015
S1130970802F0E947F0161E08E2D0E947F0161E043
S11309808C2D0E947F0161E0892D0E947F0161E02E
S11309908B2D0E947F0161E08D2D0E947F0161E01B
S11309A08A2D0E947F0161E0882D0E947F0161E011
S11309B08F2D0E947F0161E0812F0E947F01DF91D2
S11309C0CF911F910F91FF90EF90DF90CF90BF9048
S11309D0AF909F908F900895CF93C82F0E943704B3
S11309E080919C02883021F48C2F0E94F70307C069
S11309F08C2F0E94B5030E94DC03C295C07F8C2F0C
S1130A000E94B5030E94DC03CF91089590919A024D
S1130A10891758F41092A8028093A902E82FF0E0F5
S1130A20E059FF4F80810E94EC04089581E00E9408
S1130A30EC0480E00E9406050895EAE9F2E061838F
S1130A408083833040F06F70E0E7F0E080E9860F48
S1130A5082836053638384E690E00E9474018091F2
S1130A609C02883021F488E30E94EC0429C084307D
S1130A7039F580E30E94B5030E94DC0384E690E02C
S1130A800E94740180E30E94B5030E94DC0388EC99
S1130A9090E00E946E0180E30E94B5030E94DC0393
S1130AA088EC90E00E946E0180E20E94B5030E94EF
S1130AB0DC0388EC90E00E946E0188E20E94EC0462
S1130AC08EE00E94EC040E94160508958091A9020C
S1130AD08F5F8093A9021092A80290919A028917BD
S1130AE010F01092A902E091A902F0E0E059FF4F42
S1130AF080810E94EC040895CF93C82F90919B02AB
S1130B008091A802891718F4CA3029F420C00E94E1
S1130B106605CA30F1F00E94370480919C02883047
S1130B2021F48C2F0E94F70307C08C2F0E94B50379
S1130B300E941C04C295C07F8C2F0E94B5030E94A2
S1130B401C048091A8028F5F8093A80202C00E94B7
S1130B506605CF910895CF93DF93EC0188818823B4
S1130B6031F021960E947C0589918111FBCFDF91A0
S1130B70CF9108954F925F926F927F928F929F923E
S1130B80AF92BF92CF92DF92EF92FF920F931F9397
S1130B90CF93DF93CDB7DEB72A970FB6F894DEBFB5
S1130BA00FBECDBF882E6A017B01122F82E088120E
S1130BB024C0222309F466C0AA24A394B12C01E022
S1130BC0912C8FEF810FA50102C0440F551F8A9508
S1130BD0E2F7052E000C660B770B4C215D216E218C
S1130BE07F21802F452B462B472B09F4892D805DCF
S1130BF00E947C05115029F745C0452B462B472BF5
S1130C0019F0211105C03EC080E30E947C053AC062
S1130C10FE0131965F0100E0482C512C612C712CAF
S1130C20C114D104E104F10489F09C2CC701B6017C
S1130C30A30192010E94450FC22ED32EE42EF52E5D
S1130C40829E90181124F501908207C01B3018F081
S1130C5001110AC017C0F50110820F5FFFEFAF1A30
S1130C60BF0A1013DDCF01C0102FFE01E10FF11DEB
S1130C7080818A3010F0895C01C0805D0E947C050F
S1130C80115099F72A960FB6F894DEBF0FBECDBF68
S1130C90DF91CF911F910F91FF90EF90DF90CF9054
S1130CA0BF90AF909F908F907F906F905F904F9088
S1130CB008958F929F92AF92BF92CF92DF92EF925C
S1130CC0FF926B017C010E94F20D4B015C012FEF3E
S1130CD0AB01BC018AE00E94BA058EE20E947C0549
S1130CE0C501B4010E94210E9B01AC01C701B601EC
S1130CF00E940E0D20E034E244E759E40E94D80E2D
S1130D000E94F20DAB01BC012FEF8AE00E94BA05EC
S1130D10FF90EF90DF90CF90BF90AF909F908F9017
S1130D2008954F925F926F927F928F929F92AF92AB
S1130D30BF92CF92DF92EF92FF920F931F93CF93C4
S1130D40DF93CDB7DEB7FE017396819091907F015A
S1130D50D4018C91882309F407C16894AA24A4F8C7
S1130D60BB24BA9400E0853209F0DCC06401BFEF13
S1130D70CB1ADB0AD4011196EC91119780ED8E0FFA
S1130D808A3008F0E6C01296102F212F220F822FEE
S1130D90880F880F280F2053122F1E0F6D01ED911D
S1130DA080ED8E0F8A3088F38E2F90E0FC01B5978A
S1130DB0E435F10508F0B9C0E65DFF4F0C94670F08
S1130DC04701B2E08B0E911CF70180810E947C05E3
S1130DD07401ABC01B2DF70180809180F2E0EF0E0F
S1130DE0F11C992034F49194819491088DE20E942D
S1130DF07C05A401990C660B770B212F8AE00E94D5
S1130E00BA0593C01B2DF701408051806280738026
S1130E1024E0E20EF11C77205CF47094609450940A
S1130E204094411C511C611C711C8DE20E947C0584
S1130E30212FB301A2018AE00E94BA0576C01B2DBE
S1130E40F7014081518182E0E80EF11C60E070E01E
S1130E50212F8AE00E94BA0568C01B2DF70140814A
S1130E60518162817381A4E0EA0EF11C212F8AE092
S1130E700E94BA055AC01B2DF70140815181B2E08E
S1130E80EB0EF11C60E070E0212F8A2D0E94BA0560
S1130E904CC01B2DF7014081518162817381E4E0D4
S1130EA0EE0EF11C212F8A2D0E94BA053EC01B2D87
S1130EB0F70140815181F2E0EF0EF11C1F3F09F46C
S1130EC01A2D60E070E0212F82E00E94BA052DC047
S1130ED0F701408151816281738124E0E20EF11CAB
S1130EE01F3F09F41A2D212F82E00E94BA051DC06C
S1130EF0F7016081718182819381A4E0EA0EF11C83
S1130F000E94590612C04701B2E08B0E911CF701F2
S1130F10808191810E94AB05740107C085E20E9423
S1130F207C0503C00E947C0564014601FFEF8F1A13
S1130F309F0AD60111968C91811115CF15C0F70126
S1130F404081518162817381B4E0EB0EF11C1A2D52
S1130F50CACF8E2F90E0FC01B597E435F10528F750
S1130F60E258FF4F0C94670FDF91CF911F910F91BF
S1130F70FF90EF90DF90CF90BF90AF909F908F90B5
S1130F807F906F905F904F90089580E487B987E8D1
S1130F9086B9089597B18770982B97B9369A349B80
S1130FA0FECF349A2FEF80E792E0215080409040AA
S1130FB0E1F700C0000084B195B10895CF93DF93A9
S1130FC0EC019881992359F021965D9BFECF9CB941
S1130FD08AE090E00E94740199919111F6CFDF911B
S1130FE0CF910895813399F08233A1F08333A9F02E
S1130FF08433B1F08533B9F08633C1F08733C9F057
S11310008833D1F08933D9F080E090E0089581E00D
S113101090E0089582E090E0089583E090E00895E0
S113102084E090E0089585E090E0089586E090E003
S1131030089587E090E0089588E090E0089589E0BD
S113104090E008950F931F93CF93DF93CDB7DEB74E
S11310502A970FB6F894DEBF0FBECDBF0E941605C7
S113106084E790E09F938F930E94910688EE93E02B
S11310700E9474010E94160585E890E09F938F9367
S11310800E94910681E00E94060586E990E09F9304
S11310908F930E94910680E390E090938F03809356
S11310A08E030F900F900F900F900F900F9001E010
S11310B010E002C00F5F1F4F0E94E70280938D0370
S11310C00130110541F50E94160580918D030E949F
S11310D0F2079093BC028093BB02AC01990F660B9C
S11310E0770B2FEF8AE00E94BA054AE0BE016F5FDA
S11310F07F4F8091BB029091BC020E94980FBE0169
S11311006F5F7F4F8EE893E00E948D0F84E690E03E
S11311100E947401CFCF0E94F2079093BC02809387
S1131120BB02AC01990F660B770B2FEF8AE00E948C
S1131130BA054AE0BE016F5F7F4F8091BB02909178
S1131140BC020E94980FBE016F5F7F4F8EE893E050
S11311500E948D0F84E690E00E947401093011050D
S11311600CF4A8CF81E00E9406050E94160587EAC8
S113117090E09F938F930E94910681E00E94060560
S113118081E890E09F938F930E9491060EE813E00C
S11311901F930F930E94910688EB9BE00E947401B9
S11311A00E941605F80101900020E9F7319782E2C8
S11311B090E09183808388EB90E09F938F930E94CB
S11311C0910688EB9BE00E9474010E94160589ED4C
S11311D090E09F938F930E9491060E94E702809370
S11311E08D030FB6F894DEBF0FBECDBF823319F462
S11311F00E94220867C00E9416058AEE90E09F9321
S11312008F930E9491060F900F9001E010E002C0AE
S11312100F5F1F4F0E94E70280938D030130110579
S113122041F50E94160580918D030E94F207909368
S1131230BC028093BB02AC01990F660B770B2FEFB6
S11312408AE00E94BA054AE0BE016F5F7F4F809139
S1131250BB029091BC020E94980FBE016F5F7F4F4A
S113126084EB92E00E948D0F84E690E00E9474016A
S1131270CFCF0E94F2079093BC028093BB02AC01D3
S1131280990F660B770B2FEF8AE00E94BA054AE0AC
S1131290BE016F5F7F4F8091BB029091BC020E94A0
S11312A0980FBE016F5F7F4F84EB92E00E948D0F19
S11312B084E690E00E947401023011050CF4A8CF7A
S11312C00E94090D2A960FB6F894DEBF0FBECDBF5B
S11312D0DF91CF911F910F910895AF92CF92EF922A
S11312E00F93D698DE98D798DF980F2EFFE0AF2E95
S11312F0F02D0F2EFEE0CF2EF02D0F2EFDE0EF2E61
S1131300F02D0CE02BE04AE069E088E00E94B60290
S11313100E9422080F91EF90CF90AF9008958F9282
S1131320AF92CF92EF920F93CF93DF9380E884BF75
S113133084BFD49ADC9A87E18F9386E18F930F2E32
S1131340F5E18F2EF02D0F2EF4E1AF2EF02DCC24ED
S1131350CA94EE24EA940FEF2FEF42E161E180E1B9
S11313600E94830460E182E00E941D050F2EFFE0CD
S1131370AF2EF02D0F2EFEE0CF2EF02D0F2EFDE020
S1131380EF2EF02D0CE02AE04BE069E088E00E94AB
S1131390B6020E9416058BE091E09F938F930E9402
S11313A0910681E00E9406058CE191E09F938F9362
S11313B00E94910680ED97E00E9474010E94160538
S11313C08DE291E09F938F930E94910680E293E0D7
S11313D00E947401CAE3D1E0DF93CF930E94910687
S11313E080E293E00E947401DF93CF930E94910600
S11313F08CED95E00E9474010E9416050E946D090F
S11314008DB79EB70C960FB6F8949EBF0FBE8DBFD6
S113141080E090E0DF91CF910F91EF90CF90AF906B
S11314208F900895EF92FF920F931F93CF93DF93C2
S113143000D000D01F92CDB7DEB70E9416058CE312
S113144091E09F938F930E94910685E491E00E941E
S1131450DE070F2EFDE0FF2EF02DFCB809E311E0AE
S11314601F930F930E94910684E690E00E947401FA
S113147088E491E00E94DE07FCB81F930F930E945A
S1131480910684E690E00E94740182E591E00E9456
S1131490DE071F930F930E94910684E690E00E945A
S11314A074018EE893E00E94DE071F930F930E945D
S11314B091068EE893E09F938F930E94910684E6B1
S11314C090E00E947401FCB80F2EF5ECEF2EF2E0D0
S11314D0FF2EF02D8CE1ECE5F1E0D70101900D92A7
S11314E08A95E1F7D7010D900020E9F7119781E182
S11314F0E8E7F1E001900D928A95E1F764EB72E080
S1131500C7010E948D0FD7010D900020E9F71197B4
S113151082E1E9E8F1E001900D928A95E1F76DEB43
S113152072E0C7010E948D0FD7010D900020E9F7EA
S1131530119789E0EBE9F1E001900D928A95E1F7CA
S11315406091AE027091AF028091B0029091B102AD
S11315508E010F5F1F4F22E045E00E946D0FBC011A
S1131560C7010E948D0FD7010D900020E9F7119754
S113157082E1E4EAF1E001900D928A95E1F760914D
S1131580B7027091B8028091B9029091BA0222E038
S113159045E00E946D0FBC01C7010E948D0FF70149
S11315A001900020E9F7319780E293E491838083EE
S11315B01282D7010D900020E9F7119784E1E6EB40
S11315C0F1E001900D928A95E1F76091AA02709181
S11315D0AB028091AC029091AD0222E045E00E9402
S11315E06D0FBC01C7010E948D0F84E690E00E943C
S11315F07401C7010E94DE078AE18CB981E00E9470
S113160006058AEC91E09F938F930E94910688EEE1
S113161093E00E94740181E00E9406058BED91E045
S11316209F938F930E94910680E293E00E9474013D
S11316300AE311E01F930F930E94910680E293E066
S11316400E9474011F930F930E94910680E991E018
S11316500E9474011F930F930E94910680E991E008
S11316600E9474010E946D090FB6F894DEBF0FBE8C
S1131670CDBF0F900F900F900F900F90DF91CF91EF
S11316801F910F91FF90EF90089589E189B98AB174
S113169088618AB980B5866880BD0E94120A08955F
S11316A0CF92DF92EF92FF920F931F93CF93DF932A
S11316B000D000D01F92CDB7DEB782E00E94CA07E7
S11316C064B175B17093B3026093B20280E090E0AC
S11316D00E94210E20E030E048E453E40E94D80E3A
S11316E020E030E040E85AE30E94D80E9B01AC01B0
S11316F060E070E08FE293E40E940E0D6093AA0212
S11317007093AB028093AC029093AD029E012F5F65
S11317103F4F7901890122E045E00E946D0F0E944C
S1131720160589EE91E09F938F930E949106FF9294
S1131730EF920E94910680EF91E09F938F930E9415
S1131740910680ED97E00E9474010F900F900F9026
S11317500F900F900F9020E030E040E451E460914E
S1131760AA027091AB028091AC029091AD020E94EA
S11317707B0D181664F1C090AE02D090AF02E090D9
S1131780B002F090B10220E030E040ED50E4C70137
S1131790B6010E94D30E1816D4F420E030E040EFD6
S11317A050E4C701B6010E947B0D882384F485E0D0
S11317B0E4EFF1E0ADEBB2E001900D928A95E1F730
S11317C0D69ADE9A80ED97E00E94740113C085E0FA
S11317D0E9EFF1E0ADEBB2E001900D928A95E1F70B
S11317E0D79ADF9AD59ADD9A80ED97E00E9474012A
S11317F0D598DD980E9416058EEF91E09F938F9304
S11318000E94910688EB9BE00E9474010E941605D9
S113181081E00E9406058FE192E09F938F930E94DE
S1131820910680ED97E00E9474010E94160580E302
S113183092E09F938F930E9491060E94E702809307
S11318408D030F900F900F900F900F900F90813396
S113185019F40E94450B09C0833319F40E94500BFC
S113186004C00E9416050E946D090F900F900F90FE
S11318700F900F90DF91CF911F910F91FF90EF90F8
S1131880DF90CF9008950E94C5070E94500B80E01E
S113189090E008950E94160581E592E09F938F934E
S11318A00E9491060F900F900E94E70280938D038F
S11318B0813429F40E9416050E94430CF5CF83332A
S11318C029F40E9416050E94750CEECF843319F496
S11318D00E94090DE9CF0E94160582E792E09F93CA
S11318E08F930E9491060E944A0CCF93DF9300D0FD
S11318F000D01F92CDB7DEB783E00E94CA0764B15F
S113190075B17093B3026093B20280E090E00E94DC
S1131910210E20E030E048E551E40E940E0D2AE952
S113192039E949EB5FE30E94800D6093B70270933D
S1131930B8028093B9029093BA029E012F5F3F4F81
S11319407901890122E045E00E946D0F81E00E9447
S1131950060582E892E09F938F930E949106FF927E
S1131960EF920E9491068AE892E09F938F930E94DF
S1131970910680ED97E00E9474010E944A0CD3986E
S11319800E94C5070E94750CCF93DF9300D000D04E
S11319901F92CDB7DEB781E00E94CA0764B175B16A
S11319A07093B3026093B2026E5F7F4F80E090E069
S11319B00E94210E21EE32EB48E854E40E940E0D01
S11319C02FE832EC4BE752EC0E94800D6093AE029C
S11319D07093AF028093B0029093B1029E012F5F87
S11319E03F4F7901890122E045E00E946D0F0E947A
S11319F016058DE892E09F938F930E949106FF92C3
S1131A00EF920E94910680ED97E00E9474010E947B
S1131A10BF0CD1980E94C5070E94C40C5058BB2724
S1131A20AA270E94260D0C94990E0E948B0E38F062
S1131A300E94920E20F039F49F3F19F426F40C947E
S1131A40880E0EF4E095E7FB0C94820EE92F0E94B9
S1131A50AA0E58F3BA17620773078407950720F094
S1131A6079F4A6F50C94CC0E0EF4E0950B2EBA2F57
S1131A70A02D0B01B90190010C01CA01A001112490
S1131A80FF27591B99F0593F50F4503E68F11A163C
S1131A90F040A22F232F342F4427585FF3CF4695CD
S1131AA037952795A795F0405395C9F77EF41F16EF
S1131AB0BA0B620B730B840BBAF09150A1F0FF0FB9
S1131AC0BB1F661F771F881FC2F70EC0BA0F621FA5
S1131AD0731F841F48F4879577956795B795F79595
S1131AE09E3F08F0B0CF9395880F08F09927EE0F2A
S1131AF09795879508950E945E0E08F481E00895F5
S1131B000E94940D0C94990E0E94920E58F00E941B
S1131B108B0E40F029F45F3F29F00C94820E511192
S1131B200C94CD0E0C94880E0E94AA0E68F399238F
S1131B30B1F3552391F3951B550BBB27AA276217C5
S1131B407307840738F09F5F5F4F220F331F441FD2
S1131B50AA1FA9F335D00E2E3AF0E0E832D0915006
S1131B605040E695001CCAF72BD0FE2F29D0660FF3
S1131B70771F881FBB1F261737074807AB07B0E836
S1131B8009F0BB0B802DBF01FF2793585F4F3AF03C
S1131B909E3F510578F00C94820E0C94CD0E5F3F5D
S1131BA0E4F3983ED4F3869577956795B795F795C2
S1131BB09F5FC9F7880F911D9695879597F90895AA
S1131BC0E1E0660F771F881FBB1F62177307840746
S1131BD0BA0720F0621B730B840BBA0BEE1F88F755
S1131BE0E09508950E94B20E88F09F5798F0B92F9F
S1131BF09927B751B0F0E1F0660F771F881F991F3E
S1131C001AF0BA95C9F714C0B13091F00E94CC0E05
S1131C10B1E008950C94CC0E672F782F8827B85F15
S1131C2039F0B93FCCF3869577956795B395D9F795
S1131C303EF490958095709561957F4F8F4F9F4F9F
S1131C400895E89409C097FB3EF4909580957095AB
S1131C5061957F4F8F4F9F4F9923A9F0F92F96E9F4
S1131C60BB279395F695879577956795B795F11169
S1131C70F8CFFAF4BB0F11F460FF1BC06F5F7F4F06
S1131C808F4F9F4F16C0882311F096E911C0772318
S1131C9021F09EE8872F762F05C0662371F096E821
S1131CA0862F70E060E02AF09A95660F771F881FF0
S1131CB0DAF7880F9695879597F90895990F000894
S1131CC0550FAA0BE0E8FEEF16161706E807F9070A
S1131CD0C0F012161306E407F50798F0621B730BA5
S1131CE0840B950B39F40A2661F0232B242B252B26
S1131CF021F408950A2609F4A140A6958FEF811DC9
S1131D00811D089597F99F6780E870E060E0089569
S1131D109FEF80EC089500240A94161617061806FF
S1131D200906089500240A941216130614060506DB
S1131D300895092E0394000C11F4882352F0BB0F6C
S1131D4040F4BF2B11F460FF04C06F5F7F4F8F4FCF
S1131D509F4F089557FD9058440F551F59F05F3F0A
S1131D6071F04795880F97FB991F61F09F3F79F0B9
S1131D7087950895121613061406551FF2CF46953B
S1131D80F1DF08C0161617061806991FF1CF8695BD
S1131D907105610508940895E894BB2766277727A1
S1131DA0CB0197F908950E945E0E08F48FEF089511
S1131DB00E94EB0E0C94990E0E948B0E38F00E9438
S1131DC0920E20F0952311F00C94820E0C94880E40
S1131DD011240C94CD0E0E94AA0E70F3959FC1F3AA
S1131DE0950F50E0551F629FF001729FBB27F00DC5
S1131DF0B11D639FAA27F00DB11DAA1F649F66271A
S1131E00B00DA11D661F829F2227B00DA11D621F68
S1131E10739FB00DA11D621F839FA00D611D221F22
S1131E20749F3327A00D611D231F849F600D211D06
S1131E30822F762F6A2F11249F5750409AF0F1F089
S1131E4088234AF0EE0FFF1FBB1F661F771F881FF2
S1131E5091505040A9F79E3F510580F00C94820E9A
S1131E600C94CD0E5F3FE4F3983ED4F386957795BA
S1131E706795B795F795E7959F5FC1F7FE2B880F98
S1131E80911D9695879597F90895A1E21A2EAA1B9C
S1131E90BB1BFD010DC0AA1FBB1FEE1FFF1FA21716
S1131EA0B307E407F50720F0A21BB30BE40BF50B13
S1131EB0661F771F881F991F1A9469F7609570959C
S1131EC0809590959B01AC01BD01CF010895EE0F63
S1131ED0FF1F0590F491E02D0994EF920F931F9347
S1131EE0CF93DF93E80147FD02C034E001C034E141
S1131EF0042E000C550B57FF03C051954195510911
S1131F00E32E022F242FAE010E94BD0FCE01DF91DC
S1131F10CF911F910F91EF900895FB01DC010D907B
S1131F200020E9F7119701900D920020E1F7089540
S1131F30BB274A3031F4992322F4BDE29095819570
S1131F409F4F0C94A40FBB27FB015527AA27880F8A
S1131F50991FAA1FA41710F0A41B83955051B9F719
S1131F60A05DAA3308F0A95DA193009779F7B11198
S1131F70B1931192CB010C94EF11A9E0B0E0E3EC22
S1131F80FFE00C9405126A01122FB02E2BE32017E8
S1131F9020F0FF24F394F00E02C02CE3F22E0F2D58
S1131FA027E0AE014F5F5F4F0E941711BC014981CA
S1131FB0842F8970813031F0E1FC06C0E0FE06C058
S1131FC090E205C09DE203C09BE201C090E05E2D5B
S1131FD0507143FF3CC0911102C083E001C084E012
S1131FE0811718F4212F281B01C020E051110BC0C8
S1131FF0F601822F30E2882319F031938150FBCF10
S1132000C20ED11C20E0992329F0D6019C93F6013D
S113201031966F01C6010396E2FE0AC03EE4D60182
S11320203C9341E411964C93119712963C9306C04D
S11320303EE6F601308341E641833283FC01322FD0
S113204040E2332309F442C041933150FACF42FFB6
S113205044C0911102C083E001C084E0811718F4E8
S1132060212F281B01C020E051110BC0F601822F43
S113207030E2882319F031938150FBCFC20ED11C7A
S113208020E0992329F0D6019C93F60131966F0143
S1132090C6010396E2FE0BC039E4D6013C933EE44C
S11320A011963C93119736E412963C9307C039E697
S11320B0F60130833EE6318336E63283FC01322F6B
S11320C040E2332319F041933150FBCFFC01E20F7E
S11320D0F11D10828EEF9FEFA6C021E030E0911138
S11320E002C020E030E0161617061CF4FB013196FE
S11320F002C0E1E0F0E02E0F3F1FBB2021F0EB2DEA
S1132100F0E0319602C0E0E0F0E02E0F3F1FE12F37
S1132110F0E02E173F071CF4121B212F01C020E012
S11321208E2D887159F4F601822F30E2882319F03C
S113213031938150FBCFC20ED11C20E0992329F0AA
S1132140D6019C93F60131966F0151110BC0F60133
S1132150822F90E3882319F091938150FBCFC20E14
S1132160D11C20E00F2D060F9A81342F307144FFCB
S113217003C0913309F40150101624F4093018F007
S113218008E001C001E0AB0177FF02C040E050E08D
S1132190FB01E41BF50BA1E0B0E0AC0FBD1FEA0F9F
S11321A0FB1F8EE2A82E4B01801A91080B2D10E024
S11321B01195019511094F3FBFEF5B0721F4D6013B
S11321C0AC9211966D01641775072CF08416950670
S11321D014F4818101C080E3415051093196D60144
S11321E011967D014017510724F0D6018C936701A5
S11321F0E2CF6417750739F4963320F4953319F454
S1132200311101C081E3F6018083F701822F90E24E
S1132210882319F091938150FBCFF701E20FF11D50
S1132220108280E090E02996ECE00C942112283092
S113223008F027E03327DA01990F311D87FD9160FB
S113224000966105710539F432602E5F3D9330E3E9
S11322502A95E1F708959F3F30F0803871056105B4
S113226009F03C5F3C5F3D93913008F08068911D1C
S1132270DF93CF931F930F93FF92EF92192F987FC1
S11322809695E92F96959695E90FFF27E250FE4F14
S113229099273327EE24FF24A701E701059008942A
S11322A0079428F4360FE71EF81E491F511D660FC8
S11322B0771F881F991F0694A1F70590079428F4A7
S11322C0E70EF81E491F561FC11D770F881F991F5F
S11322D0661F0694A1F70590079428F4F80E491F89
S11322E0561FC71FD11D880F991F661F771F06949D
S11322F0A1F70590079420F4490F561FC71FD81F54
S1132300990F661F771F881F0694A9F7849110956B
S1132310177041F0D695C79557954795F794E7946C
S11323201A95C1F7E4EAF1E0689415901591359196
S11323306591959105907FE27395E118F10A430B3D
S1132340560BC90BD009C0F7E10CF11E431F561FF1
S1132350C91FD01D7EF4703311F48A95E6CFE8943A
S1132360015030F0080F0AF40027021708F4202F58
S11323702395022F7A3328F079E37D932A95E9F7A0
S113238010C07D932A9589F606949795679537959D
S113239017951794E118F10A430B560BC90BD00992
S11323A098F023957E9173957A3308F070E37C93CB
S11323B02013B8F77E9170617D9330F0839571E3BB
S11323C07D9370E32A95E1F71124EF90FF900F912C
S11323D01F91CF91DF91992787FD90950895DC0196
S11323E0FC01672F71917723E1F7329704C07C9148
S11323F06D9370836291AE17BF07C8F308952F924F
S11324003F924F925F926F927F928F929F92AF9280
S1132410BF92CF92DF92EF92FF920F931F93CF93CD
S1132420DF93CDB7DEB7CA1BDB0B0FB6F894DEBF64
S11324300FBECDBF09942A88398848885F846E848A
S11324407D848C849B84AA84B984C884DF80EE80D4
S1132450FD800C811B81AA81B981CE0FD11D0FB6DD
S1132460F894DEBF0FBECDBFED010895F894FFCF01
S11324703132334134353642373839432A302344F4
S113248080C090D02020202057454C434F4D4520FC
S113249020202020002020454E54455220204D4F1E
S11324A042494C4520002020204E554D42455220A3
S11324B02D2D3E20202000204D6F62696C65206E1A
S11324C0756D626572203A004946204D4F42494C71
S11324D045204E554D42455220434F525245435498
S11324E0205052455353203100204946204E4F542A
S11324F0205052455353203220002020454E54454D
S1132500522053414D504C45202020202020204E65
S1132510554D424552202020202000202057617430
S11325206572205175616C69747920002020202027
S113253020546573746572202020202000496E6940
S11325407469616C697A696E67202E0053454E4444
S1132550494E472E0041540041542B434D47463DBC
S1132560310041542B434D47533D2200576174655C
S113257072205175616C6974792054657374657245
S1132580205265706F7274000A53616D706C65201F
S11325904E756D626572203A000A5175616C6974FA
S11325A07920537461747573203A000A20205048CE
S11325B0203A20000A202054656D7065726174759C
S11325C07265203A20000A20205475626964697497
S11325D079206C6576656C3A2000202020202073D9
S11325E06D732073656E7420202000204E6578740E
S11325F02054657374696E670054555242203D003F
S11326004E545500476F6F64005765616B0020207E
S113261057414E5420544F2053454E4420202020EF
S11326205245504F525420415320534D53200020C3
S1132630205052455353204B45592031202020002F
S113264020202020204946204E4F542020202020A6
S11326502020205052455353204B455920322020EE
S113266000205072657373206B6579204120746F6C
S113267020436F6E74696E75652050726F63657365
S1132680730020205072657373206B65792041209C
S1132690200054656D70203D2000204300704820C8
S10526A03D00F7
S9030000FC
